:020000040000FA
:100000000C9462000C948A000C948A000C948A0070
:100010000C948A000C948A000C948A000C948A0038
:100020000C948A000C948A000C948A000C948A0028
:100030000C948A000C948A000C948A000C948A0018
:100040000C94020A0C948A000C94720A0C944C0AC8
:100050000C948A000C948A000C948A000C948A00F8
:100060000C94A40A0C948A000000000024002700CD
:100070002A0000000000250028002B0000000000DE
:1000800023002600290004040404040404040202DA
:100090000202020203030303030301020408102007
:1000A0004080010204081020010204081020000012
:1000B0000008000201000003040700000000000027
:1000C0000000550C11241FBECFEFD8E0DEBFCDBF1E
:1000D00012E0A0E0B1E0E0E9FCE202C005900D9280
:1000E000AE39B107D9F724E0AEE9B2E001C01D9204
:1000F000A531B207E1F710E0C2E6D0E004C02197D5
:10010000FE010E944016C136D107C9F70E94B40C07
:100110000C9446160C940000833081F028F4813052
:1001200099F08230A9F008958730A9F08830C9F09D
:100130008430B1F4809180008F7D03C08091800075
:100140008F7780938000089584B58F7784BD08955C
:1001500084B58F7DFBCF8091B0008F778093B00006
:1001600008958091B0008F7DF9CFCF93DF93282F32
:1001700030E0F901E255FF4F8491F901E656FF4F57
:10018000D491F901EA57FF4FC491CC23A1F081111A
:100190000E948C00EC2FF0E0EE0FFF1FE458FF4FA1
:1001A000A591B491EC91ED2381E090E009F480E019
:1001B000DF91CF91089580E090E0FACF1F93CF9325
:1001C000DF93282F30E0F901E255FF4F8491F901C8
:1001D000E656FF4FD491F901EA57FF4FC491CC2363
:1001E000A9F0162F81110E948C00EC2FF0E0EE0F89
:1001F000FF1FEE58FF4FA591B4918FB7F894EC9183
:10020000111108C0D095DE23DC938FBFDF91CF9111
:100210001F910895DE2BF8CFCF93DF9390E0FC0180
:10022000E656FF4F24918A579F4FFC018491882303
:10023000C9F090E0880F991FFC01E859FF4FA59184
:10024000B491FC01EE58FF4FC591D49161110DC0DE
:100250009FB7F8948C91209582238C9388812823D2
:1002600028839FBFDF91CF910895623051F49FB7EB
:10027000F8943C91822F809583238C93E8812E2BD8
:10028000EFCF8FB7F894EC912E2B2C938FBFEACF42
:10029000CF93DF93C3EFD3E061E089810E940C012B
:1002A00060E089810E94DE0061E088810E94DE00BA
:1002B00061E089810E94DE0060E08981DF91CF9159
:1002C0000C940C0160E08091F4030E940C0161E049
:1002D0008091F3030E94DE008091F4030E94B50038
:1002E0000197D1F360E08091F3030C94DE003FB7F7
:1002F000F89480914A0390914B03A0914C03B091E4
:100300004D0326B5A89B05C02F3F19F00196A11DEE
:10031000B11D3FBFBA2FA92F982F8827BC01CD014F
:10032000620F711D811D911D42E0660F771F881FAE
:10033000991F4A95D1F708958F929F92AF92BF92DD
:10034000CF92DF92EF92FF924B015C010E94770106
:100350006B017C010E9477016C197D098E099F0950
:10036000683E734081059105A8F321E0821A910847
:10037000A108B10888EEC80E83E0D81EE11CF11C6C
:1003800081149104A104B10429F7FF90EF90DF904C
:10039000CF90BF90AF909F908F900895AF92BF92F3
:1003A000CF92DF92EF92FF920F931F93CF93DF9341
:1003B0006C017B018B01040F151FEB015E01AE1870
:1003C000BF08C017D10759F06991D601ED91FC9192
:1003D0000190F081E02DC6010995892B79F7C501BF
:1003E000DF91CF911F910F91FF90EF90DF90CF9011
:1003F000BF90AF900895FC01538D448D252F30E0C0
:10040000842F90E0821B930B541710F0CF96089521
:1004100001970895FC01918D828D981761F0A28D4E
:10042000AE0FBF2FB11D5D968C91928D9F5F9F7314
:10043000928F90E008958FEF9FEF0895FC01918DCA
:10044000828D981731F0828DE80FF11D858D90E037
:1004500008958FEF9FEF0895FC01918D228D892FD4
:1004600090E0805C9F4F821B91098F7399270895BC
:100470008EE493E00E942C0221E0892B09F420E015
:10048000822F089580E090E0892B29F00E943802A5
:1004900081110C9400000895FC01A48DA80FB92FC0
:1004A000B11DA35ABF4F2C91848D90E001968F739C
:1004B0009927848FA689B7892C93A089B1898C91BB
:1004C000837080648C93938D848D981306C002880A
:1004D000F389E02D80818F7D80830895EF92FF92D4
:1004E0000F931F93CF93DF93EC0181E0888F9B8D57
:1004F0008C8D98131AC0E889F989808185FF15C011
:100500009FB7F894EE89FF896083E889F989808133
:100510008370806480839FBF81E090E0DF91CF9102
:100520001F910F91FF90EF900895F62E0B8D10E024
:100530000F5F1F4F0F731127E02E8C8D8E110CC093
:100540000FB607FCFACFE889F989808185FFF5CFDE
:10055000CE010E944C02F1CFEB8DEC0FFD2FF11D6F
:10056000E35AFF4FF0829FB7F8940B8FEA89FB891B
:1005700080818062CFCFCF93DF93EC01888D882379
:10058000B9F0AA89BB89E889F9898C9185FD03C0F6
:10059000808186FD0DC00FB607FCF7CF8C9185FFDB
:1005A000F2CF808185FFEDCFCE010E944C02E9CFD2
:1005B000DF91CF91089508952091C502260F33272A
:1005C000331F21323105ECF42091E902FC0190E067
:1005D00080E0243069F082E00895A091C502219165
:1005E000AC014B555D4FA40FB52FB11D2C93019657
:1005F000861798F38091C502680F6093C50280E06A
:10060000089581E0089508958FEF9FEF08958FEF8B
:100610009FEF089580919E0290E0919581959109B8
:100620000895CF93DF93CB01EA01642F0E94DC028F
:10063000CE01DF91CF910895CF93DF931F92CDB775
:10064000DEB7698361E0CE0101960E94DC0281E0A1
:1006500090E00F90DF91CF91089590E080E00895B1
:100660000F931F93CF93DF93082F162FD42FC8E03B
:100670006D2F661F6627661F802F0E94DE00DD0F2C
:1006800061E0812F0E94DE0060E0812F0E94DE0089
:10069000C15071F7DF91CF911F910F9108951F9372
:1006A000CF93DF93182FC3EFD3E061E089810E94DD
:1006B0000C0161E089810E94DE0061E088810E9476
:1006C000DE0060E089810E94DE0060E088810E9497
:1006D000DE00412F68818981DF91CF911F910C94B9
:1006E00030031F93CF93DF93182FC3EFD3E061E064
:1006F00089810E940C01412F68818981DF91CF910E
:100700001F910C943003CF93DF939091FC039923B6
:1007100049F194EE9093BC009091BC0097FFFCCF00
:1007200090ED9093BB0094EC9093BC009091BC0032
:1007300097FFFCCF8093BB0084EC8093BC0080913A
:10074000BC0087FFFCCF6093BB0084EC8093BC00AF
:100750008091BC0087FFFCCF84E98093BC00DF91CF
:10076000CF910895C62FD82F80ED0E944F030E948D
:1007700062018D2F0E9471030E9462018C2F0E94E2
:1007800071030E946201DF91CF910C944801BF92E6
:10079000CF92DF92EF92FF920F931F93CF93DF934D
:1007A000CDB7DEB728970FB6F894DEBF0FBECDBF2A
:1007B0008091FC03882309F49EC084EE8093BC00E2
:1007C0008091BC0087FFFCCF80ED8093BB0084EC60
:1007D0008093BC008091BC0087FFFCCF1092BB00CF
:1007E00084EC8093BC008091BC0087FFFCCF84EE3A
:1007F0008093BC008091BC0087FFFCCF81ED80938B
:10080000BB0084EC8093BC008091BC0087FFFCCFD0
:10081000E5EFF3E08CEF93E034EC3093BC002091F3
:10082000BC0027FFFCCF2091BB0021938E179F07B0
:10083000A1F784E88093BC008091BC0087FFFCCFC7
:1008400084E98093BC004091F503842F82958770E2
:100850005AE04F70859F400D11243091F603832F8D
:10086000829587703F70859F300D11246091F7034A
:10087000262F2F70862F90E067FFAAC065FB882780
:1008800080F9FCE08F9F200D1124F091F803509126
:10089000F9036091FA038091FB03952F929597706D
:1008A0007AE05F70979F500D1124E62FE295E77074
:1008B0006F70E79F600D1124982F92959F708F7035
:1008C000979F800D112490E08053984F9F838E83D3
:1008D000782F8F819F2F28960FB6F894DEBF0FBE1A
:1008E000CDBFDF91CF911F910F91FF90EF90DF90DF
:1008F000CF90BF90089580ED0E944F030E94620147
:1009000080E00E9471030E94620181ED0E944F030A
:100910000E946201E5EFCE2EE3E0DE2E10E000E063
:1009200060E08091F4030E940C0177E0E72EF12C47
:10093000B12C61E08091F3030E94DE008091F4030A
:100940000E94B50099270E2C01C0880F0A94EAF77F
:10095000B82A60E08091F3030E94DE0081E0E81A8B
:10096000F10838F7F601B1926F018091F40361E06C
:100970000630110521F10E940C0160E08091F30323
:100980000E94DE0060E08091F4030E94DE0061E0DE
:100990008091F3030E94DE0060E08091F3030E94E7
:1009A000DE0060E08091F4030E940C010F5F1F4F96
:1009B0000730110509F0B4CF0E94480144CF0E94CE
:1009C0000C0160E08091F3030E94DE0061E0DBCF68
:1009D00064E0959587956A95E1F78370859F200D72
:1009E000112453CFCF93DF93EC0160E08E810E94FE
:1009F000DE0061E08E810E94DE0060E08E810E9458
:100A0000DE008BE891E00197F1F7DF91CF91089537
:100A1000CF92DF92EF92FF920F931F93CF93DF93CA
:100A20006C017C0187E0E80EF11CD0E0C0E0062FED
:100A300010E0B8010C2E02C0759567950A94E2F794
:100A40006170F70181917F010E94DE002196C43020
:100A5000D10579F7C601DF91CF911F910F91FF90DA
:100A6000EF90DF90CF900C94F204CF92DF92EF9250
:100A7000FF920F931F93CF93DF93EC01F62E642F19
:100A80008C810E94DE008D818F3F19F060E00E9412
:100A9000DE000F2D10E08F8584FF25C06E0187E0FA
:100AA000C80ED11CF12CE12CB8010E2C02C075959A
:100AB00067950A94E2F76170F60181916F010E94D7
:100AC000DE00FFEFEF1AFF0A88E0E816F10461F795
:100AD000CE01DF91CF911F910F91FF90EF90DF90AA
:100AE000CF900C94F204B80184E0759567958A95CF
:100AF000E1F7CE010E9408056F2DCE01DF91CF9165
:100B00001F910F91FF90EF90DF90CF900C9408050C
:100B100040E0682F8DEF93E00C94350581E00E9452
:100B200088058BE39FE10197F1F70895CF93DF9359
:100B3000823029F490910C04986090930C04809377
:100B400010041092110480E48093120480E18093D9
:100B5000130480E58093140461E0809101040E94F5
:100B60000C01809102048F3F19F061E00E940C019A
:100B700061E0809103040E940C01CDEFD3E09E015F
:100B80002D5F334080910C0484FD0BC084E090E025
:100B900021962817390744F461E08E810E940C01E8
:100BA000EECF88E090E0F4CF8BE39DE00197F1F782
:100BB00060E0809101040E94DE0060E08091030407
:100BC0000E94DE00809102048F3F19F060E00E94D5
:100BD000DE0080910C0484FD34C063E08DEF93E06F
:100BE0000E940805CBE4D6E4CE010197F1F763E05B
:100BF0008DEF93E00E9408052197F1F763E08DEFF8
:100C000093E00E94080583E592E00197F1F762E026
:100C10008DEF93E00E94080580910C0480620E9491
:100C2000880584E080930D048CE00E9488050E9472
:100C30008E0582E080930E0486E0DF91CF910C94C4
:100C4000880580620E9488058BE496E40197F1F79D
:100C500080910C0480620E94880583E592E00197F0
:100C6000F1F780910C0480620E948805D5CF643032
:100C700008F063E090911004691710F06FEF690FAE
:100C8000E62FF0E0E350FC4F9489890F80680C94C4
:100C90008805EDEFF3E08089982F9260908B8A6051
:100CA0000C948805EDEFF3E080898D7F808B886060
:100CB0000C94880541E00E94350581E090E008959C
:100CC000FB0101900020E9F73197AF01461B570B5C
:100CD000DC01ED91FC910280F381E02D09944F92AB
:100CE0005F926F927F928F929F92AF92BF92CF92BC
:100CF000DF92EF92FF920F931F93CF93DF93CDB7C5
:100D0000DEB7A1970FB6F894DEBF0FBECDBF8C0142
:100D10006B01770FEE08FF08F7FE49C0DC01ED918B
:100D2000FC910190F081E02D6DE209955C01222794
:100D30003327A9012C193D094E095F0919A2FE01AB
:100D4000B1967F019AE0492E512C612C712CCA0179
:100D5000B901A30192010E940A16605DD7016E934A
:100D60007D01211531054105510589F790E080E0AD
:100D7000109721F0BD01C8010E9460068A0D9B1DDD
:100D8000A1960FB6F894DEBF0FBECDBFDF91CF9115
:100D90001F910F91FF90EF90DF90CF90BF90AF9099
:100DA0009F908F907F906F905F904F900895A701D4
:100DB000960119A2FE01B1967F018AE0882E912C3E
:100DC000A12CB12CCA01B901A50194010E940A16F7
:100DD000605DD7016E937D012115310541055105F7
:100DE00089F790E080E0109759F2BD01C8010E9498
:100DF0006006C6CF6115710511F00C94600690E095
:100E000080E00895CF92DF92EF92FF920F931F93AD
:100E1000CF93DF936C017B018A01E901FC018081A2
:100E2000918160E00A970CF08CC086E00E94370642
:100E30006EE471E08DEF93E00E94FA0660E087E0D7
:100E40000E943706F601608171818DEF93E00E9468
:100E50006F0660E088E00E94370660E571E08DEF84
:100E600093E00E94FA06F7018081918160E00A9781
:100E70000CF069C089E00E9437066EE471E08DEFE6
:100E800093E00E94FA0660E08AE00E943706F701CC
:100E9000608171818DEF93E00E946F06F80180817F
:100EA000918161E00A970CF050C086E00E943706FD
:100EB0006EE471E08DEF93E00E94FA0661E087E056
:100EC0000E943706F801608171818DEF93E00E94E6
:100ED0006F0661E088E00E94370662E571E08DEF01
:100EE00093E00E94FA068881998161E00A977CF577
:100EF00089E00E9437066EE471E08DEF93E00E9476
:100F0000FA0661E08AE00E943706688179818DEFF8
:100F100093E00E946F0660912903809128010E944E
:100F200037060E94490662E370E080E090E0DF91BE
:100F3000CF911F910F91FF90EF90DF90CF900C9485
:100F40009C0186E07DCF89E0A0CF86E0B9CF89E023
:100F5000DACF80912703909128030197059700F538
:100F60000E948E0560E080E00E94370664E571E033
:100F70008DEF93E00E94FA0661E080E00E94370660
:100F80006BE571E08DEF93E00E94FA0661E08CE082
:100F90000E94370665E771E08DEF93E00C94FA0646
:100FA00008958091270390912803009791F40E945F
:100FB0008E0562E671E08DEF93E00E94FA0661E033
:100FC00080E00E94370668E671E08DEF93E00C94B4
:100FD000FA068130910579F40E948E0564E771E08C
:100FE0008DEF93E00E94FA0661E080E00E943706F0
:100FF0006AE771E0EACF8230910579F40E948E05AC
:1010000066E871E08DEF93E00E94FA0661E080E00F
:101010000E94370662E971E0D8CF8330910579F4F8
:101020000E948E056EE971E08DEF93E00E94FA0652
:1010300061E080E00E9437066AEA71E0C6CF843042
:10104000910579F40E948E0566EB71E08DEF93E0D7
:101050000E94FA0661E080E00E94370662EC71E0CF
:10106000B4CF059779F40E948E056EEC71E08DEF98
:1010700093E00E94FA0661E080E00E9437066AED84
:1010800071E0A3CF089580913B0390913C038130A0
:10109000910519F00297B9F008950E948E0560E05D
:1010A00080E00E94370666EE71E08DEF93E00E94CB
:1010B000FA0661E08CE00E94370665E771E08DEF8B
:1010C00093E00C94FA060E948E0560E080E00E9496
:1010D000370661EF71E0E9CF80913B0390913C03CB
:1010E000009791F40E948E0562E671E08DEF93E027
:1010F0000E94FA0661E080E00E9437066BEE71E024
:101100008DEF93E00C94FA068130910579F40E94FA
:101110008E0564E771E08DEF93E00E94FA0661E0CE
:1011200080E00E9437066CEF71E0EACF82309105D3
:1011300079F40E948E0562E072E08DEF93E00E94E8
:10114000FA0661E080E00E9437066EE172E0D8CFD7
:10115000039779F40E948E0566EF71E08DEF93E0BE
:101160000E94FA0661E080E00E94370668E072E0C3
:10117000C7CF08951F93CF93DF93CDB7DEB72897DE
:101180000FB6F894DEBF0FBECDBF60E080E00E94D6
:10119000370664E571E08DEF93E00E94FA0661E0A6
:1011A00080E00E9437066BE571E08DEF93E00E94CE
:1011B000FA0660E086E00E9437060E94C7036D834E
:1011C0007E838F8380E35A3028F0852F6AE00E9467
:1011D000EA15805D809300013AE0852F632F0E941D
:1011E000EA15905D909301018EE2809302012D81BA
:1011F00080E32A3020F0822F0E94EA15805D8093E0
:1012000003011AE0822F612F0E94EA15905D9093EE
:1012100004018EE2809305012E813F81C90168EEB1
:1012200073E00E94F615605D60930601E4E6F0E06D
:10123000BF010E94F615605D60930701C901BF01FF
:101240000E94F615EAE0F0E0BF010E94F615605D2D
:1012500060930801C901BF010E94F615805D80936B
:10126000090110920A0160E071E08DEF93E00E94A5
:10127000FA0661E086E00E9437060E94C7033A83BF
:101280004B8380E32A3028F0822F612F0E94EA15D9
:10129000805D80930B013AE0822F632F0E94EA1554
:1012A000905D90930C018AE380930D012A8180E385
:1012B0002A3020F0822F0E94EA15805D80930E0173
:1012C0003AE0822F632F0E94EA15905D90930F0100
:1012D0008AE3809310012B8180E32A3020F0822F53
:1012E0000E94EA15805D80931101822F6AE00E94BE
:1012F000EA15905D90931201109213016BE071E07A
:101300008DEF93E028960FB6F894DEBF0FBECDBFE9
:10131000DF91CF911F910C94FA061F93CF93DF9327
:1013200085ED8093BC008091A1029091A202A091D2
:10133000A302B091A4020796A11DB11D23E0B695AA
:10134000A795979587952A95D1F72091BC0024FD04
:1013500003C01092E90252C04091A1025091A20232
:101360006091A3027091A402452B462B472B69F391
:101370000097A105B10541F02AE22A95F1F700C0D6
:101380000197A109B109E1CF8091A002C1E0C0930A
:101390009F02882399F1D091B8001091BA008091F2
:1013A000BC008A7B8093BC0060E082E10E94DE008A
:1013B00060E083E10E94DE001092E902C093EB023C
:1013C0001092EA0261E082E10E94DE0061E083E1C6
:1013D0000E94DE008091B9008E7F8093B9008091D9
:1013E000B9008D7F8093B90088E48093B80085E4CC
:1013F0008093BC001093BA00D093B800DF91CF91D6
:101400001F9108951F920F920FB60F9211242F93E0
:101410003F938F939F93AF93BF9380914603909197
:101420004703A0914803B09149033091450323E05D
:10143000230F2D3758F50196A11DB11D20934503AB
:101440008093460390934703A0934803B0934903C6
:1014500080914A0390914B03A0914C03B0914D03AE
:101460000196A11DB11D80934A0390934B03A09355
:101470004C03B0934D03BF91AF919F918F913F91DA
:101480002F910F900FBE0F901F90189526E8230FF5
:101490000296A11DB11DD2CF1F920F920FB60F92CF
:1014A00011242F933F934F935F936F937F938F9369
:1014B0009F93AF93BF93EF93FF938EE493E00E94CB
:1014C0004C02FF91EF91BF91AF919F918F917F91CE
:1014D0006F915F914F913F912F910F900FBE0F90A1
:1014E0001F9018951F920F920FB60F9211242F93F1
:1014F0008F939F93EF93FF93E0915E03F0915F03CF
:101500008081E0916403F091650382FD1BC09081AE
:10151000809167038F5F8F7320916803821741F07A
:10152000E0916703F0E0E25BFC4F958F80936703E7
:10153000FF91EF919F918F912F910F900FBE0F9080
:101540001F9018958081F4CF1F920F920FB60F92C3
:1015500011242F933F934F935F936F937F938F93B8
:101560009F93AF93BF93EF93FF938091B900887FD0
:10157000803609F44AC0F0F5883209F4A5C018F5A0
:10158000803109F499C0B8F4882309F4F5C0883093
:1015900009F492C0FF91EF91BF91AF919F918F910C
:1015A0007F916F915F914F913F912F910F900FBE5F
:1015B0000F901F901895883109F486C0803251F73A
:1015C0008093E80214C0803409F49BC040F4803357
:1015D000B9F38833F9F68093E80285ECAEC0803524
:1015E00009F483C0883509F494C0883499F60E94C0
:1015F0008D09D0CF883909F48AC038F5883729F0A9
:1016000050F4883611F0803729F683E08093E902A0
:101610001092E70255C0883809F479C0803919F072
:10162000803809F0B7CF8091E702803208F06FC0B0
:10163000E091E70281E08E0F8093E7028091BB008A
:10164000F0E0E953FD4F80833BC0803B39F0D0F49C
:10165000803A09F477C0883A09F09CCF84E08093FF
:10166000E9021092C6021092C502F0E0E0E009958E
:101670008091C50281110FC081E08093C502109254
:10168000A50209C0803C09F4A8CF883C09F4A5CF85
:10169000883B09F07FCFE091C60281E08E0F8093F6
:1016A000C602F0E0EB55FD4F80818093BB00909126
:1016B000C6028091C50229C080910E038093BB00B1
:1016C00085EC8093BC0066CF90910D0380910C0354
:1016D000981758F5E0910D0381E08E0F80930D036C
:1016E000F0E0E451FD4F8081E9CFE0910D0381E00E
:1016F0008E0F80930D038091BB00F0E0E451FD4F0D
:10170000808390910D0380910C039817C8F285E8AF
:10171000D8CFE0910D0381E08E0F80930D0380916F
:10172000BB00F0E0E451FD4F80838091EB0281111A
:101730005ECF81E08093EA0284EA8093BC0010923D
:10174000E90228CF85EC8093BC001092E9028091D9
:10175000E702803230F4E091E702F0E0E953FD4F18
:1017600010826091E70270E087EC92E0F0E0E0E048
:1017700009951092E7020ECF1092E80238CFDC01F3
:10178000FB018091290390912A03009781F42D9108
:101790003C9111972F5F3F4F2D3031051CF42D9355
:1017A0003C93089581E090E08D939C930895019778
:1017B00059F48081918101968C3391051CF49183B9
:1017C00080830895118210820895DC01FB018091CD
:1017D000290390912A03009781F42D913C91119750
:1017E0002F5F3F4F203231051CF42D933C93089519
:1017F00081E090E08D939C930895019759F4808146
:1018000091810196883191051CF49183808308951C
:10181000118210820895DC01FB01809129039091CF
:101820002A03009781F42D913C91119721503109A1
:10183000121613061CF42D933C9308958CE090E04F
:101840008D939C930895019739F48081918101973C
:1018500097FD03C09183808308958BE390E0FACFD6
:10186000DC01FB018091290390912A03009781F408
:101870002D913C91119721503109121613061CF439
:101880002D933C9308958FE190E08D939C93089560
:10189000019739F480819181019797FD03C091836D
:1018A0008083089587E190E0FACFEEE4F3E01382BD
:1018B000128288EE93E0A0E0B0E084839583A68353
:1018C000B78384E391E09183808385EC90E09587F2
:1018D000848784EC90E09787868780EC90E0918BFA
:1018E000808B81EC90E0938B828B82EC90E0958BE7
:1018F000848B86EC90E0978B868B118E128E138EE4
:10190000148EEDEFF3E01382128286E491E091836E
:1019100080838DE084838FEF85838CE086838BE0EA
:1019200087838AE0808789E0818788E082871386C1
:10193000148615861686178681E00E949605E3EFC9
:10194000F3E082E1818383E18083EBEEF3E08EEDCF
:1019500097E09683858381E084838383108211825C
:10196000128283E087830895789484B5826084BD71
:1019700084B5816084BD85B5826085BD85B5816093
:1019800085BD80916E00816080936E001092810011
:1019900080918100826080938100809181008160CC
:1019A000809381008091800081608093800080918D
:1019B000B10084608093B1008091B0008160809319
:1019C000B00080917A00846080937A0080917A00E0
:1019D000826080937A0080917A00816080937A009F
:1019E00080917A00806880937A001092C100E09123
:1019F0005E03F0915F0382E08083E0915A03F091EF
:101A00005B031082E0915C03F0915D038FEC8083B7
:101A100010926603E0916203F091630386E0808395
:101A2000E0916003F0916103808180618083E091A7
:101A30006003F0916103808188608083E09160039E
:101A4000F0916103808180688083E0916003F09170
:101A5000610380818F7D80838091F403823109F05E
:101A6000EBC08091F303833109F0E6C081E08093FD
:101A7000FC0361E082E10E94DE0061E083E10E94FC
:101A8000DE008091B9008E7F8093B9008091B9000B
:101A90008D7F8093B9008CE08093B80085E08093BF
:101AA000BC0082E00E94960562E086E00E940C0184
:101AB00062E085E00E940C0162E087E00E940C0178
:101AC00061E084E00E940C0136E0E32EF12C01E09D
:101AD00010E04BE3642E712C59E0C52ED12C9FE011
:101AE000A92EB12C22E0822E912C0E94C7032093B4
:101AF000EB033093EC034093ED035093EE036093BC
:101B0000EF037093F0038093F1039093F20386E068
:101B10000E94B500EC01909344038093430385E059
:101B20000E94B500909342038093410387E00E9496
:101B3000B5009093400380933F0380912E019091D4
:101B40002F01C817D90731F1CD2BE1F480913D0366
:101B500090913E038130910509F07CC080913B0358
:101B600090913C03833091050CF46EC010923C03BD
:101B700010923B030E946C0864E670E080E090E005
:101B80000E949C01809143039091440390932F0104
:101B900080932E01809141039091420320912E0168
:101BA00030912F018217930741F1892BF1F4809135
:101BB0003D0390913E038130910509F0FBC1809176
:101BC0003B0390913C03181619060CF4F1C183E015
:101BD00090E090933C0380933B030E946C0864E682
:101BE00070E080E090E00E949C0180914103909120
:101BF000420390932F0180932E0180913F03909197
:101C0000400320912E0130912F018217930709F490
:101C1000AEC3892B09F0A3C380913D0390913E038D
:101C2000019690933E0380933D038130910509F026
:101C300071C30E946C087FC31092FC0361E0809125
:101C4000F3030E940C012DCF019690933C038093E7
:101C50003B0390CF82309105E9F480913B03909152
:101C60003C039C01215031092230310508F015C197
:101C70008091390390913A030196803191052CF4BB
:101C800090933A038093390377CF10923A031092DE
:101C9000390372CF8330910509F016C180913B035F
:101CA00090913C038130910509F083C08091390304
:101CB00090913A0382309105A0F480912C0190918B
:101CC0002D010197181619062CF490932D0180937D
:101CD0002C0152CF2FE130E030932D0120932C01C5
:101CE0004BCF9C01235031092230310580F4809183
:101CF0002A0190912B010197181619062CF4909344
:101D00002B0180932A0138CF8CE090E0F8CF863009
:101D1000910589F48091370390913803019797FDDD
:101D200005C0909338038093370326CFD0923803B1
:101D3000C092370321CF8730910589F48091350314
:101D400090913603019797FD05C0909336038093D9
:101D5000350312CFD0923603C09235030DCF8830B1
:101D6000910589F48091330390913403019797FD95
:101D700005C09093340380933303FECED092340396
:101D8000C0923303F9CE8930910509F0F5CE209148
:101D90003103309132032150310937FD05C03093B2
:101DA000320320933103E8CE9093320380933103C2
:101DB000E3CE8230910509F046C0809139039091BD
:101DC0003A038230910598F480912F03909130036B
:101DD000019797FD05C09093300380932F03CCCEDD
:101DE00027E130E03093300320932F03C5CE9C01D0
:101DF000235031092230310588F480912D039091D0
:101E00002E03019797FD05C090932E0380932D0319
:101E1000B3CE70922E0360922D03AECE069702973A
:101E200008F0AACE80912B0390912C03019797FD87
:101E300005C090932C0380932B039ECE70922C03AD
:101E400060922B0399CE039709F096CE80912801DA
:101E50009091290101969093290180932801209166
:101E6000290330912A03232B61F40B970CF484CEC1
:101E7000F0922901E092280110932A03009329038C
:101E80007BCE40970CF478CEF0922901E0922801A5
:101E900010922A03109229036FCE039709F06CCE9B
:101EA00080912703909128030196863091053CF498
:101EB00090932803809327030E94D1075DCE109250
:101EC000280310922703F8CF049709F055CE80918C
:101ED0003B0390913C03039709F04ECE809128017B
:101EE000909129019C01265031092230310570F56D
:101EF00080912703909128038130910539F465E2A0
:101F000073E086E291E00E94300C36CE823091057B
:101F100029F463E273E084E291E0F5CF8330910528
:101F200029F461E273E082E291E0EDCF8430910523
:101F300029F46FE173E080E291E0E5CF059709F0C5
:101F40001BCE6DE173E08EE191E0DDCF0997029742
:101F500008F012CE809127039091280381309105DB
:101F600039F46BE173E08CE191E00E940B0C04CE3C
:101F70008230910529F469E173E08AE191E0F5CFBF
:101F80008330910529F467E173E088E191E0EDCFBA
:101F90008430910529F465E173E086E191E0E5CFB5
:101FA000059709F0E9CD63E173E084E191E0DDCFCD
:101FB00001970FCE82309105E1F480913B0390911F
:101FC0003C039C01215031092230310508F01AC12F
:101FD0008091390390913A03019797FD05C0909342
:101FE0003A0380933903FBCDB0923A03A0923903B0
:101FF000F6CD8330910509F019C120913B03309152
:102000003C032130310509F085C08091390390915E
:102010003A038230910590F480912C0190912D012A
:102020000196803291052CF490932D0180932C0120
:10203000D6CD30932D0120932C01D1CDAC0143504E
:1020400051094230510590F480912A0190912B0161
:1020500001968D3091052CF490932B0180932A01E9
:10206000BECD30932B0120932A01B9CD8630910546
:1020700091F4809137039091380301968A3091054D
:102080002CF49093380380933703A9CD1092380332
:1020900010923703A4CD8730910591F480913503D8
:1020A0009091360301968A3091052CF49093360373
:1020B0008093350394CD10923603109235038FCD63
:1020C0008830910591F48091330390913403019607
:1020D0008A3091052CF490933403809333037FCDA1
:1020E00010923403109233037ACD099709F077CD1B
:1020F000809131039091320301968A3091052CF43E
:1021000090933203809331036ACD10923203109280
:10211000310365CD2230310509F047C08091390384
:1021200090913A038230910590F480912F03909121
:1021300030030196883191052CF4909330038093FD
:102140002F034DCD1092300310922F0348CD9C01E8
:10215000235031092230310590F480912D03909164
:102160002E0301968C3391052CF490932E038093CB
:102170002D0335CD10922E0310922D0330CD0697EE
:10218000029708F02CCD80912B0390912C0301969F
:102190008C3391052CF490932C0380932B031FCD4B
:1021A00010922C0310922B031ACD2330310509F025
:1021B00016CD8091280190912901019790932901D2
:1021C000809328012091290330912A03232B61F465
:1021D00006970CF004CDB0922901A092280110932B
:1021E0002A0300932903FBCC06970CF0F8CC2AE0D5
:1021F00030E0309329012093280110922A03109295
:102200002903EDCC039709F0EACC80912703909144
:102210002803019797FD07C0909328038093270315
:102220000E94D107DCCC85E090E0F6CF049709F05E
:10223000D6CC80913B0390913C03039709F0CFCC1F
:1022400080912801909129019C012650310922306A
:10225000310570F580912703909128038130910515
:1022600039F465E273E086E291E00E94E50BB7CCB9
:102270008230910529F463E273E084E291E0F5CFC6
:102280008330910529F461E273E082E291E0EDCFC1
:102290008430910529F46FE173E080E291E0E5CFAD
:1022A000059709F09CCC6DE173E08EE191E0DDCF04
:1022B0000997029708F093CC809127039091280307
:1022C0008130910539F46BE173E08CE191E00E947B
:1022D000BF0B85CC8230910529F469E173E08AE176
:1022E00091E0F5CF8330910529F467E173E088E14F
:1022F00091E0EDCF8430910529F465E173E086E14A
:1023000091E0E5CF059709F06ACC63E173E084E1E1
:1023100091E0DDCF8230910509F0BCC180913B0393
:1023200090913C03009709F0A6C110923E031092D1
:102330003D030E94BA088091110390911203019706
:1023400041F4109212031092110310923E03109266
:102350003D0364E670E080E090E00E949C01809183
:102360003F039091400390932F0180932E01809121
:102370003D0390913E03009709F010C220913B036A
:1023800030913C03232B09F009C20E94BA080E9435
:10239000520680913D0390913E03892B09F015C4AC
:1023A0008091EE0390E02091260130912701821761
:1023B0009307E9F0209124013091250182179307BA
:1023C000B1F020912201309123018217930779F017
:1023D00020912001309121018217930741F0209133
:1023E0001E0130911F018217930709F07BC0809175
:1023F000EF0390E020911C0130911D01821793079B
:10240000E9F020911A0130911B0182179307B1F076
:1024100020911801309119018217930779F02091CA
:102420001601309117018217930741F02091140192
:10243000309115018217930709F054C08091EB0386
:1024400090E0209125033091260382179307E1F055
:10245000209123033091240382179307A9F0209140
:102460002103309122038217930771F020911F03FB
:10247000309120038217930739F020911D0330918A
:102480001E038217930771F58091EC0390E0209171
:102490001B0330911C0382179307E1F0209119036D
:1024A00030911A0382179307A9F0209117033091F6
:1024B00018038217930771F02091150330911603CA
:1024C0008217930739F02091130330911403821778
:1024D000930741F48091ED03813021F410931203AE
:1024E000009311038091110390911203019751F50C
:1024F0000E948E0560E083E00E94370662E172E090
:102500008DEF93E00E94FA0661E082E00E943706B8
:102510006CE172E08DEF93E00E94FA0661E084E0E6
:102520000E94DE0064EF71E080E090E00E949C0178
:1025300060E084E00E94DE0062E370E080E090E012
:102540000E949C0168E272E08EE493E00E94FA0629
:1025500060913D0370913E038EE493E00E946F060C
:1025600068E372E08EE493E00E94FA066DE372E0A5
:102570008EE493E00E94FA0660913B0370913C0365
:102580008EE493E00E946F0668E372E08EE493E0CD
:102590000E94FA066AE472E08EE493E00E94FA0672
:1025A00060912801709129018EE493E00E946F06EA
:1025B00068E372E08EE493E00E94FA066BE572E055
:1025C0008EE493E00E94FA06609111037091120369
:1025D0008EE493E00E946F0668E372E08EE493E07D
:1025E0000E94FA0660E772E08EE493E00E94FA0629
:1025F0006091290370912A038EE493E00E946F0694
:1026000068E372E08EE493E00E94FA0668E772E005
:102610008EE493E00E94FA066091270370912803EC
:102620008EE493E00E946F0668E372E08EE493E02C
:102630000E94FA066FE872E08EE493E00E94FA06C8
:102640006091390370913A038EE493E00E946F0623
:102650006BE972E08EE493E00E94600680E090E017
:10266000892B09F442CA0E943802882309F437CA28
:102670000E94000034CA9C012150310922303105EA
:1026800018F40E94430857CE039709F054CE0E94D5
:10269000D10751CE8430910571F5C0913B03D091A3
:1026A0003C03CE010197029728F490923E0380925A
:1026B0003D03E7CFC330D10509F03DCE809128011D
:1026C000909129010C97049708F035CE0E94D1070C
:1026D00090923E0380923D03D0933C03C0933B0312
:1026E000F0922901E092280110922A031092290306
:1026F0000E94520620CE83309105B1F580913B03B4
:1027000090913C039C012150310922303105B8F4ED
:102710008091390390913A030C97049708F00BCEFF
:1027200010933E0300933D0310923C0310923B0331
:1027300010923A03109239030E946C08D9CF039784
:1027400009F0F9CD8091270390912803009729F48F
:1027500010933E0300933D036CCA0197059708F060
:10276000EACD0E94A907E7CD059709F0E4CDC09115
:102770003B03D0913C03C330D10509F0DCCD8091FF
:102780002703909128030197059708F0D4CD0E9464
:10279000A907D0933E03C0933D03CDCD9C012250A9
:1027A00031092230310508F0C3C120913B0330913B
:1027B0003C032330310509F4BBC12130310509F058
:1027C000FCC0C0912C01D0912D0161E080E0CA30A5
:1027D000D1050CF0EAC00E9437066EE471E08DEF7F
:1027E00093E00E94FA0661E081E00E943706609162
:1027F0002C0170912D018DEF93E00E946F0661E036
:1028000082E00E94370660E571E08DEF93E00E9460
:10281000FA06C0912A01D0912B0161E083E0CA3011
:10282000D1050CF0C6C00E9437066EE471E08DEF52
:1028300093E00E94FA0661E084E00E94370660910E
:102840002A0170912B018DEF93E00E946F0661E0E9
:1028500085E00E94370660E571E08DEF93E00E940D
:10286000FA0661E086E00E943706609137037091B6
:1028700038038DEF93E00E946F0661E087E00E94CD
:10288000370660913503709136038DEF93E00E9417
:102890006F0661E088E00E94370660913303709113
:1028A00034038DEF93E00E946F0661E089E00E949F
:1028B000370660913103709132038DEF93E00E94EF
:1028C0006F06809137039091380328EE33E0829FA2
:1028D000E001839FD00D929FD00D112420913503EC
:1028E0003091360344E6429FC001439F900D11246E
:1028F000C80FD91F20913303309134038AE0582E3A
:10290000529EC001539E900D1124C80FD91F809173
:10291000310390913203C80FD91FD0931003C09395
:102920000F0361E0809139030E9437060E94490637
:1029300062E370E080E090E00E949C0140902C01F6
:102940008FEF840D8F3108F024CD30902A018FEF66
:10295000830D8C3008F01DCDCE01805D9740883E00
:1029600033E0930708F015CD652D0E94EA15829596
:10297000807F682F690F86E00E948303832D652D79
:102980000E94EA158295807F682F690F85E00E947A
:102990008303842D652D0E94EA158295807F682F20
:1029A000690F84E00E948303F4CC0E943706BE01C5
:1029B00022CF0E943706BE0146CF2230310509F0F2
:1029C000E8CCC0912F03D091300361E080E0CA30A1
:1029D000D1050CF0A1C00E9437066EE471E08DEFC6
:1029E00093E00E94FA0661E081E00E943706609160
:1029F0002F03709130038DEF93E00E946F0661E02A
:102A000082E00E94370662E571E08DEF93E00E945C
:102A1000FA06C0912D03D0912E0361E083E0CA3005
:102A2000D1050CF07DC00E9437066EE471E08DEF99
:102A300093E00E94FA0661E084E00E94370660910C
:102A40002D0370912E038DEF93E00E946F0661E0DD
:102A500085E00E94370662E571E08DEF93E00E9409
:102A6000FA06C0912B03D0912C0361E086E0CA30B6
:102A7000D1050CF059C00E9437066EE471E08DEF6D
:102A800093E00E94FA0661E087E00E9437066091B9
:102A90002B0370912C038DEF93E00E946F0661E091
:102AA000809139030E9437060E94490662E370E074
:102AB00080E090E00E949C0180912F03883108F013
:102AC00068CC50902D039BE3951508F462CCD0910F
:102AD0002B03DC3308F05DCCCAE06C2F0E94EA15B2
:102AE0008295807F682F690F82E00E948303852D85
:102AF0006C2F0E94EA158295807F682F690F81E014
:102B00000E9483038D2F6C2F0E94EA158295807F8F
:102B1000682F690F80E046CF0E943706BE016BCF59
:102B20000E943706BE018FCF0E943706BE01B3CF89
:102B30000397029708F02DCC80913B0390913C03C2
:102B4000039709F026CC80912703909128038130C8
:102B5000910559F42BE133E045E253E06CE171E07B
:102B600086E291E00E94020714CC8230910549F47C
:102B700029E133E043E253E06AE171E084E291E06D
:102B8000F1CF8330910549F427E133E041E253E08E
:102B900068E171E082E291E0E5CF8430910549F48B
:102BA00025E133E04FE153E066E171E080E291E03E
:102BB000D9CF059709F0EDCB23E133E04DE153E0A8
:102BC00064E171E08EE191E0CDCF1092120310929A
:102BD000110388CC991B79E004C0991F961708F05F
:102BE000961B881F7A95C9F78095089597FB072E45
:102BF00016F4009407D077FD09D00E942C1607FC2C
:102C000005D03EF4909581959F4F089570956195FC
:102C10007F4F0895A1E21A2EAA1BBB1BFD010DC018
:102C2000AA1FBB1FEE1FFF1FA217B307E407F5077C
:102C300020F0A21BB30BE40BF50B661F771F881F58
:102C4000991F1A9469F760957095809590959B01EE
:102C5000AC01BD01CF010895AA1BBB1B51E107C008
:102C6000AA1FBB1FA617B70710F0A61BB70B881F1C
:102C7000991F5A95A9F780959095BC01CD010895AB
:102C8000EE0FFF1F0590F491E02D0994F894FFCF0B
:102C9000787878787878787878780078787878782C
:102CA00078787800010001000100010001000100B6
:102CB0000100010001000100060001000100010007
:102CC000000000006E02CE01FB01BB022C020A02D2
:102CD0001E02000000005A06CE012D03DB02300068
:102CE0002F003A00444154453A200054494D453A9A
:102CF00020003E4241434B002042414F2054485562
:102D000043203100204241434B003E42414F20547A
:102D10004855432031003E42414F205448554320FE
:102D200032002042414F2054485543203300204276
:102D3000414F20544855432032003E42414F2054D9
:102D40004855432033003E42414F205448554320CC
:102D500034002042414F2054485543203500204242
:102D6000414F20544855432034003E42414F2054A7
:102D7000485543203500534554555020444154454F
:102D80000053455455502054494D45003E4441544C
:102D900045003E54494D45003E42414F2054485560
:102DA000430054484F4E472042414F00434F20427A
:102DB000414F205448554300C490E1BABF6D207480
:102DC000E1BB956E673A200020202020002B2F2D9C
:102DD0002074E1BB956E673A200043542042C3A1A2
:102DE0006F207468E1BBA9633A2000C490E1BABFC8
:102DF0006D2042C3A16F207468E1BBA9633A200033
:102E000048C3A06E673A20002B2F2D206D656E758C
:102E10002062C3A16F207468E1BBA9633A2000431C
:0E2E20006F6E207472E1BB8F3A20000D0A0025
:107E0000112484B714BE81FFF0D085E080938100F7
:107E100082E08093C00088E18093C10086E0809377
:107E2000C20080E18093C4008EE0C9D0259A86E02C
:107E300020E33CEF91E0309385002093840096BBD3
:107E4000B09BFECF1D9AA8958150A9F7CC24DD24C4
:107E500088248394B5E0AB2EA1E19A2EF3E0BF2EE7
:107E6000A2D0813461F49FD0082FAFD0023811F036
:107E7000013811F484E001C083E08DD089C08234E0
:107E800011F484E103C0853419F485E0A6D080C0E4
:107E9000853579F488D0E82EFF2485D0082F10E0AE
:107EA000102F00270E291F29000F111F8ED06801E7
:107EB0006FC0863521F484E090D080E0DECF843638
:107EC00009F040C070D06FD0082F6DD080E0C81688
:107ED00080E7D80618F4F601B7BEE895C0E0D1E017
:107EE00062D089930C17E1F7F0E0CF16F0E7DF06D8
:107EF00018F0F601B7BEE89568D007B600FCFDCFD4
:107F0000A601A0E0B1E02C9130E011968C91119780
:107F100090E0982F8827822B932B1296FA010C0160
:107F200087BEE89511244E5F5F4FF1E0A038BF0790
:107F300051F7F601A7BEE89507B600FCFDCF97BE46
:107F4000E89526C08437B1F42ED02DD0F82E2BD052
:107F50003CD0F601EF2C8F010F5F1F4F84911BD097
:107F6000EA94F801C1F70894C11CD11CFA94CF0C13
:107F7000D11C0EC0853739F428D08EE10CD085E9AC
:107F80000AD08FE07ACF813511F488E018D01DD067
:107F900080E101D065CF982F8091C00085FFFCCF94
:107FA0009093C60008958091C00087FFFCCF809118
:107FB000C00084FD01C0A8958091C6000895E0E648
:107FC000F0E098E1908380830895EDDF803219F02E
:107FD00088E0F5DFFFCF84E1DECF1F93182FE3DFCA
:107FE0001150E9F7F2DF1F91089580E0E8DFEE27F6
:047FF000FF270994CA
:027FFE00040479
:00000001FF
